$ tcpdump -XX -i eth0
tcpdump: verbose output suppressed, use -v[v]... for full protocol decode
listening on eth0, link-type EN10MB (Ethernet), snapshot length 262144 bytes
14:25:09.008717 IP 192.168.194.132.39566 > ec2-107-23-24-39.compute-1.amazonaws.com.https: Flags [P.], seq 3009819078:3009819124, ack 1353754362, win 62780, length 46
        0x0000:  0050 56ef 78d6 000c 29e8 2686 0800 4500  .PV.x...).&...E.
        0x0010:  0056 7118 4000 4006 c31e c0a8 c284 6b17  .Vq.@.@.......k.
        0x0020:  1827 9a8e 01bb b366 31c6 50b0 a6fa 5018  .'.....f1.P...P.
        0x0030:  f53c 06b4 0000 1703 0300 2900 0000 0000  .<........).....
        0x0040:  0000 b5e3 4fab 1a5b 9064 1302 387e 97dd  ....O..[.d..8~..
        0x0050:  ffdf 44d2 4894 b8c7 0c05 5817 3008 86cc  ..D.H.....X.0...
        0x0060:  6925 cb16                                i%..
14:25:09.009468 IP ec2-107-23-24-39.compute-1.amazonaws.com.https > 192.168.194.132.39566: Flags [.], ack 46, win 64240, length 0
        0x0000:  000c 29e8 2686 0050 56ef 78d6 0800 4500  ..).&..PV.x...E.
        0x0010:  0028 4fb6 0000 8006 e4ae 6b17 1827 c0a8  .(O.......k..'..
        0x0020:  c284 01bb 9a8e 50b0 a6fa b366 31f4 5010  ......P....f1.P.
        0x0030:  faf0 3529 0000 0000 0000 0000            ..5)........
14:25:09.010143 IP 192.168.194.132.39566 > ec2-107-23-24-39.compute-1.amazonaws.com.https: Flags [P.], seq 46:77, ack 1, win 62780, length 31
        0x0000:  0050 56ef 78d6 000c 29e8 2686 0800 4500  .PV.x...).&...E.
        0x0010:  0047 7119 4000 4006 c32c c0a8 c284 6b17  .Gq.@.@..,....k.
        0x0020:  1827 9a8e 01bb b366 31f4 50b0 a6fa 5018  .'.....f1.P...P.
        0x0030:  f53c 06a5 0000 1503 0300 1a00 0000 0000  .<..............
        0x0040:  0000 b686 40fe 7ed5 b034 d9fe e789 48dd  ....@.~..4....H.
        0x0050:  db1d 1941 2a                             ...A*
14:25:09.010395 IP 192.168.194.132.39566 > ec2-107-23-24-39.compute-1.amazonaws.com.https: Flags [F.], seq 77, ack 1, win 62780, length 0
        0x0000:  0050 56ef 78d6 000c 29e8 2686 0800 4500  .PV.x...).&...E.
        0x0010:  0028 711a 4000 4006 c34a c0a8 c284 6b17  .(q.@.@..J....k.
        0x0020:  1827 9a8e 01bb b366 3213 50b0 a6fa 5011  .'.....f2.P...P.
        0x0030:  f53c 0686 0000                           .<....
14:25:09.010517 IP ec2-107-23-24-39.compute-1.amazonaws.com.https > 192.168.194.132.39566: Flags [.], ack 77, win 64240, length 0
        0x0000:  000c 29e8 2686 0050 56ef 78d6 0800 4500  ..).&..PV.x...E.
        0x0010:  0028 4fb7 0000 8006 e4ad 6b17 1827 c0a8  .(O.......k..'..
        0x0020:  c284 01bb 9a8e 50b0 a6fa b366 3213 5010  ......P....f2.P.
        0x0030:  faf0 350a 0000 0000 0000 0000            ..5.........
14:25:09.011179 IP ec2-107-23-24-39.compute-1.amazonaws.com.https > 192.168.194.132.39566: Flags [.], ack 78, win 64239, length 0
        0x0000:  000c 29e8 2686 0050 56ef 78d6 0800 4500  ..).&..PV.x...E.
        0x0010:  0028 4fb8 0000 8006 e4ac 6b17 1827 c0a8  .(O.......k..'..
        0x0020:  c284 01bb 9a8e 50b0 a6fa b366 3214 5010  ......P....f2.P.
        0x0030:  faef 350a 0000 0000 0000 0000            ..5.........
14:25:09.044255 IP 192.168.194.132.60796 > 192.168.194.2.domain: 32945+ PTR? 39.24.23.107.in-addr.arpa. (43)
        0x0000:  0050 56ef 78d6 000c 29e8 2686 0800 4500  .PV.x...).&...E.
        0x0010:  0047 d43d 4000 4011 6090 c0a8 c284 c0a8  .G.=@.@.`.......
        0x0020:  c202 ed7c 0035 0033 061d 80b1 0100 0001  ...|.5.3........
        0x0030:  0000 0000 0000 0233 3902 3234 0232 3303  .......39.24.23.
        0x0040:  3130 3707 696e 2d61 6464 7204 6172 7061  107.in-addr.arpa
        0x0050:  0000 0c00 01                             .....
14:25:09.370858 IP ec2-107-23-24-39.compute-1.amazonaws.com.https > 192.168.194.132.39566: Flags [FP.], seq 1, ack 78, win 64239, length 0
        0x0000:  000c 29e8 2686 0050 56ef 78d6 0800 4500  ..).&..PV.x...E.
        0x0010:  0028 4fb9 0000 8006 e4ab 6b17 1827 c0a8  .(O.......k..'..
        0x0020:  c284 01bb 9a8e 50b0 a6fa b366 3214 5019  ......P....f2.P.
        0x0030:  faef 3501 0000 0000 0000 0000            ..5.........
14:25:09.370951 IP 192.168.194.132.39566 > ec2-107-23-24-39.compute-1.amazonaws.com.https: Flags [.], ack 2, win 62780, length 0
        0x0000:  0050 56ef 78d6 000c 29e8 2686 0800 4500  .PV.x...).&...E.
        0x0010:  0028 0000 4000 4006 3465 c0a8 c284 6b17  .(..@.@.4e....k.
        0x0020:  1827 9a8e 01bb b366 3214 50b0 a6fb 5010  .'.....f2.P...P.
        0x0030:  f53c 3abc 0000                           .<:...
14:25:09.490519 IP 192.168.194.2.domain > 192.168.194.132.60796: 32945 1/0/0 PTR ec2-107-23-24-39.compute-1.amazonaws.com. (97)
        0x0000:  000c 29e8 2686 0050 56ef 78d6 0800 4500  ..).&..PV.x...E.
        0x0010:  007d 4fba 0000 8011 e4dd c0a8 c202 c0a8  .}O.............
        0x0020:  c284 0035 ed7c 0069 ce3d 80b1 8180 0001  ...5.|.i.=......
        0x0030:  0001 0000 0000 0233 3902 3234 0232 3303  .......39.24.23.
        0x0040:  3130 3707 696e 2d61 6464 7204 6172 7061  107.in-addr.arpa
        0x0050:  0000 0c00 01c0 0c00 0c00 0100 0000 0500  ................
        0x0060:  2a10 6563 322d 3130 372d 3233 2d32 342d  *.ec2-107-23-24-
        0x0070:  3339 0963 6f6d 7075 7465 2d31 0961 6d61  39.compute-1.ama
        0x0080:  7a6f 6e61 7773 0363 6f6d 00              zonaws.com.
14:25:09.491171 IP 192.168.194.132.38028 > 192.168.194.2.domain: 9732+ PTR? 132.194.168.192.in-addr.arpa. (46)
        0x0000:  0050 56ef 78d6 000c 29e8 2686 0800 4500  .PV.x...).&...E.
        0x0010:  004a d47d 4000 4011 604d c0a8 c284 c0a8  .J.}@.@.`M......
        0x0020:  c202 948c 0035 0036 0620 2604 0100 0001  .....5.6..&.....
        0x0030:  0000 0000 0000 0331 3332 0331 3934 0331  .......132.194.1
        0x0040:  3638 0331 3932 0769 6e2d 6164 6472 0461  68.192.in-addr.a
        0x0050:  7270 6100 000c 0001                      rpa.....
14:25:09.496222 IP 192.168.194.2.domain > 192.168.194.132.38028: 9732 NXDomain 0/0/0 (46)
        0x0000:  000c 29e8 2686 0050 56ef 78d6 0800 4500  ..).&..PV.x...E.
        0x0010:  004a 4fbb 0000 8011 e50f c0a8 c202 c0a8  .JO.............
        0x0020:  c284 0035 948c 0036 c17e 2604 8183 0001  ...5...6.~&.....
        0x0030:  0000 0000 0000 0331 3332 0331 3934 0331  .......132.194.1
        0x0040:  3638 0331 3932 0769 6e2d 6164 6472 0461  68.192.in-addr.a
        0x0050:  7270 6100 000c 0001                      rpa.....
14:25:09.507358 IP 192.168.194.132.39011 > 192.168.194.2.domain: 5024+ PTR? 2.194.168.192.in-addr.arpa. (44)
        0x0000:  0050 56ef 78d6 000c 29e8 2686 0800 4500  .PV.x...).&...E.
        0x0010:  0048 d481 4000 4011 604b c0a8 c284 c0a8  .H..@.@.`K......
        0x0020:  c202 9863 0035 0034 061e 13a0 0100 0001  ...c.5.4........
        0x0030:  0000 0000 0000 0132 0331 3934 0331 3638  .......2.194.168
        0x0040:  0331 3932 0769 6e2d 6164 6472 0461 7270  .192.in-addr.arp
        0x0050:  6100 000c 0001                           a.....
14:25:09.511081 IP 192.168.194.2.domain > 192.168.194.132.39011: 5024 NXDomain 0/0/0 (44)
        0x0000:  000c 29e8 2686 0050 56ef 78d6 0800 4500  ..).&..PV.x...E.
        0x0010:  0048 4fbc 0000 8011 e510 c0a8 c202 c0a8  .HO.............
        0x0020:  c284 0035 9863 0034 0541 13a0 8183 0001  ...5.c.4.A......
        0x0030:  0000 0000 0000 0132 0331 3934 0331 3638  .......2.194.168
        0x0040:  0331 3932 0769 6e2d 6164 6472 0461 7270  .192.in-addr.arp
        0x0050:  6100 000c 0001                           a.....
14:25:10.010361 IP 192.168.194.132.46130 > 209.54.180.49.https: Flags [P.], seq 2676808997:2676809028, ack 1342122704, win 62780, length 31
        0x0000:  0050 56ef 78d6 000c 29e8 2686 0800 4500  .PV.x...).&...E.
        0x0010:  0047 b336 4000 4006 7ee5 c0a8 c284 d136  .G.6@.@.~......6
        0x0020:  b431 b432 01bb 9f8c dd25 4fff 2ad0 5018  .1.2.....%O.*.P.
        0x0030:  f53c 08cf 0000 1503 0300 1a00 0000 0000  .<..............
        0x0040:  0000 011c 7dc6 dbba 2666 3e1b bd7b 41b9  ....}...&f>..{A.
        0x0050:  b2c8 fe3a 1c                             ...:.
14:25:10.010603 IP 192.168.194.132.46130 > 209.54.180.49.https: Flags [F.], seq 31, ack 1, win 62780, length 0
        0x0000:  0050 56ef 78d6 000c 29e8 2686 0800 4500  .PV.x...).&...E.
        0x0010:  0028 b337 4000 4006 7f03 c0a8 c284 d136  .(.7@.@........6
        0x0020:  b431 b432 01bb 9f8c dd44 4fff 2ad0 5011  .1.2.....DO.*.P.
        0x0030:  f53c 08b0 0000                           .<....
14:25:10.011292 IP 209.54.180.49.https > 192.168.194.132.46130: Flags [.], ack 31, win 64240, length 0
        0x0000:  000c 29e8 2686 0050 56ef 78d6 0800 4500  ..).&..PV.x...E.
        0x0010:  0028 4fbd 0000 8006 e27d d136 b431 c0a8  .(O......}.6.1..
        0x0020:  c284 01bb b432 4fff 2ad0 9f8c dd44 5010  .....2O.*....DP.
        0x0030:  faf0 febf 0000 0000 0000 0000            ............
14:25:10.011387 IP 209.54.180.49.https > 192.168.194.132.46130: Flags [.], ack 32, win 64239, length 0
        0x0000:  000c 29e8 2686 0050 56ef 78d6 0800 4500  ..).&..PV.x...E.
        0x0010:  0028 4fbe 0000 8006 e27c d136 b431 c0a8  .(O......|.6.1..
        0x0020:  c284 01bb b432 4fff 2ad0 9f8c dd45 5010  .....2O.*....EP.
        0x0030:  faef febf 0000 0000 0000 0000            ............
14:25:10.011550 IP 192.168.194.132.46128 > 209.54.180.49.https: Flags [P.], seq 4105785938:4105785969, ack 597130142, win 62780, length 31
        0x0000:  0050 56ef 78d6 000c 29e8 2686 0800 4500  .PV.x...).&...E.
        0x0010:  0047 dae4 4000 4006 5737 c0a8 c284 d136  .G..@.@.W7.....6
        0x0020:  b431 b430 01bb f4b9 5252 2397 7b9e 5018  .1.0....RR#.{.P.
        0x0030:  f53c 08cf 0000 1503 0300 1a00 0000 0000  .<..............
        0x0040:  0000 0175 aad6 57f9 0bf9 ef67 3152 a0ec  ...u..W....g1R..
        0x0050:  8ed2 a01d 1d                             .....
14:25:10.011794 IP 192.168.194.132.46128 > 209.54.180.49.https: Flags [F.], seq 31, ack 1, win 62780, length 0
        0x0000:  0050 56ef 78d6 000c 29e8 2686 0800 4500  .PV.x...).&...E.
        0x0010:  0028 dae5 4000 4006 5755 c0a8 c284 d136  .(..@.@.WU.....6
        0x0020:  b431 b430 01bb f4b9 5271 2397 7b9e 5011  .1.0....Rq#.{.P.
        0x0030:  f53c 08b0 0000                           .<....
14:25:10.012279 IP 209.54.180.49.https > 192.168.194.132.46128: Flags [.], ack 31, win 64240, length 0
        0x0000:  000c 29e8 2686 0050 56ef 78d6 0800 4500  ..).&..PV.x...E.
        0x0010:  0028 4fbf 0000 8006 e27b d136 b431 c0a8  .(O......{.6.1..
        0x0020:  c284 01bb b430 2397 7b9e f4b9 5271 5010  .....0#.{...RqP.
        0x0030:  faf0 1002 0000 0000 0000 0000            ............
14:25:10.012660 IP 209.54.180.49.https > 192.168.194.132.46128: Flags [.], ack 32, win 64239, length 0
        0x0000:  000c 29e8 2686 0050 56ef 78d6 0800 4500  ..).&..PV.x...E.
        0x0010:  0028 4fc0 0000 8006 e27a d136 b431 c0a8  .(O......z.6.1..
        0x0020:  c284 01bb b430 2397 7b9e f4b9 5272 5010  .....0#.{...RrP.
        0x0030:  faef 1002 0000 0000 0000 0000            ............
14:25:10.012674 IP 192.168.194.132.46126 > 209.54.180.49.https: Flags [P.], seq 1368077812:1368077843, ack 426217886, win 62780, length 31
        0x0000:  0050 56ef 78d6 000c 29e8 2686 0800 4500  .PV.x...).&...E.
        0x0010:  0047 169b 4000 4006 1b81 c0a8 c284 d136  .G..@.@........6
        0x0020:  b431 b42e 01bb 518b 35f4 1967 919e 5018  .1....Q.5..g..P.
        0x0030:  f53c 08cf 0000 1503 0300 1a00 0000 0000  .<..............
        0x0040:  0000 01dd 014a ab64 4a0d 40f2 11f4 764a  .....J.dJ.@...vJ
        0x0050:  9a51 7fdc 32                             .Q..2
14:25:10.012905 IP 192.168.194.132.46126 > 209.54.180.49.https: Flags [F.], seq 31, ack 1, win 62780, length 0
        0x0000:  0050 56ef 78d6 000c 29e8 2686 0800 4500  .PV.x...).&...E.
        0x0010:  0028 169c 4000 4006 1b9f c0a8 c284 d136  .(..@.@........6
        0x0020:  b431 b42e 01bb 518b 3613 1967 919e 5011  .1....Q.6..g..P.
        0x0030:  f53c 08b0 0000                           .<....
14:25:10.013399 IP 209.54.180.49.https > 192.168.194.132.46126: Flags [.], ack 31, win 64240, length 0
        0x0000:  000c 29e8 2686 0050 56ef 78d6 0800 4500  ..).&..PV.x...E.
        0x0010:  0028 4fc1 0000 8006 e279 d136 b431 c0a8  .(O......y.6.1..
        0x0020:  c284 01bb b42e 1967 919e 518b 3613 5010  .......g..Q.6.P.
        0x0030:  faf0 c3c0 0000 0000 0000 0000            ............
14:25:10.013812 IP 209.54.180.49.https > 192.168.194.132.46126: Flags [.], ack 32, win 64239, length 0
        0x0000:  000c 29e8 2686 0050 56ef 78d6 0800 4500  ..).&..PV.x...E.
        0x0010:  0028 4fc2 0000 8006 e278 d136 b431 c0a8  .(O......x.6.1..
        0x0020:  c284 01bb b42e 1967 919e 518b 3614 5010  .......g..Q.6.P.
        0x0030:  faef c3c0 0000 0000 0000 0000            ............
14:25:10.084076 IP 192.168.194.132.58475 > 192.168.194.2.domain: 63530+ PTR? 49.180.54.209.in-addr.arpa. (44)
        0x0000:  0050 56ef 78d6 000c 29e8 2686 0800 4500  .PV.x...).&...E.
        0x0010:  0048 d484 4000 4011 6048 c0a8 c284 c0a8  .H..@.@.`H......
        0x0020:  c202 e46b 0035 0034 061e f82a 0100 0001  ...k.5.4...*....
        0x0030:  0000 0000 0000 0234 3903 3138 3002 3534  .......49.180.54
        0x0040:  0332 3039 0769 6e2d 6164 6472 0461 7270  .209.in-addr.arp
        0x0050:  6100 000c 0001                           a.....
14:25:10.226248 IP 192.168.194.2.domain > 192.168.194.132.58475: 63530 NXDomain 0/1/0 (98)
        0x0000:  000c 29e8 2686 0050 56ef 78d6 0800 4500  ..).&..PV.x...E.
        0x0010:  007e 4fc3 0000 8011 e4d3 c0a8 c202 c0a8  .~O.............
        0x0020:  c284 0035 e46b 006a 6f9c f82a 8183 0001  ...5.k.jo..*....
        0x0030:  0000 0001 0000 0234 3903 3138 3002 3534  .......49.180.54
        0x0040:  0332 3039 0769 6e2d 6164 6472 0461 7270  .209.in-addr.arp
        0x0050:  6100 000c 0001 c016 0006 0001 0000 0005  a...............
        0x0060:  002a 017a 0461 7269 6e03 6e65 7400 0764  .*.z.arin.net..d
        0x0070:  6e73 2d6f 7073 c03a 7839 7d07 0000 0708  ns-ops.:x9}.....
        0x0080:  0000 0384 000a 8c00 0000 2a30            ..........*0
14:25:10.293108 IP 209.54.180.49.https > 192.168.194.132.46128: Flags [FP.], seq 1, ack 32, win 64239, length 0
        0x0000:  000c 29e8 2686 0050 56ef 78d6 0800 4500  ..).&..PV.x...E.
        0x0010:  0028 4fc4 0000 8006 e276 d136 b431 c0a8  .(O......v.6.1..
        0x0020:  c284 01bb b430 2397 7b9e f4b9 5272 5019  .....0#.{...RrP.
        0x0030:  faef 0ff9 0000 0000 0000 0000            ............
14:25:10.293159 IP 192.168.194.132.46128 > 209.54.180.49.https: Flags [.], ack 2, win 62780, length 0
        0x0000:  0050 56ef 78d6 000c 29e8 2686 0800 4500  .PV.x...).&...E.
        0x0010:  0028 0000 4000 4006 323b c0a8 c284 d136  .(..@.@.2;.....6
        0x0020:  b431 b430 01bb f4b9 5272 2397 7b9f 5010  .1.0....Rr#.{.P.
        0x0030:  f53c 15b4 0000                           .<....
14:25:10.311149 IP 209.54.180.49.https > 192.168.194.132.46126: Flags [FP.], seq 1, ack 32, win 64239, length 0
        0x0000:  000c 29e8 2686 0050 56ef 78d6 0800 4500  ..).&..PV.x...E.
        0x0010:  0028 4fc5 0000 8006 e275 d136 b431 c0a8  .(O......u.6.1..
        0x0020:  c284 01bb b42e 1967 919e 518b 3614 5019  .......g..Q.6.P.
        0x0030:  faef c3b7 0000 0000 0000 0000            ............
14:25:10.311152 IP 209.54.180.49.https > 192.168.194.132.46130: Flags [FP.], seq 1, ack 32, win 64239, length 0
        0x0000:  000c 29e8 2686 0050 56ef 78d6 0800 4500  ..).&..PV.x...E.
        0x0010:  0028 4fc6 0000 8006 e274 d136 b431 c0a8  .(O......t.6.1..
        0x0020:  c284 01bb b432 4fff 2ad0 9f8c dd45 5019  .....2O.*....EP.
        0x0030:  faef feb6 0000 0000 0000 0000            ............
14:25:10.311208 IP 192.168.194.132.46126 > 209.54.180.49.https: Flags [.], ack 2, win 62780, length 0
        0x0000:  0050 56ef 78d6 000c 29e8 2686 0800 4500  .PV.x...).&...E.
        0x0010:  0028 0000 4000 4006 323b c0a8 c284 d136  .(..@.@.2;.....6
        0x0020:  b431 b42e 01bb 518b 3614 1967 919f 5010  .1....Q.6..g..P.
        0x0030:  f53c c972 0000                           .<.r..
14:25:10.311382 IP 192.168.194.132.46130 > 209.54.180.49.https: Flags [.], ack 2, win 62780, length 0
        0x0000:  0050 56ef 78d6 000c 29e8 2686 0800 4500  .PV.x...).&...E.
        0x0010:  0028 0000 4000 4006 323b c0a8 c284 d136  .(..@.@.2;.....6
        0x0020:  b431 b432 01bb 9f8c dd45 4fff 2ad1 5010  .1.2.....EO.*.P.
        0x0030:  f53c 0472 0000                           .<.r..
^C
34 packets captured
34 packets received by filter
0 packets dropped by kernel
